{
  "_format": "hh-sol-artifact-1",
  "contractName": "TokenizedAssets",
  "sourceName": "contracts/TokenizedAssets.sol",
  "abi": [
    {
      "anonymous": false,
      "inputs": [
        {
          "indexed": false,
          "internalType": "uint256",
          "name": "assetId",
          "type": "uint256"
        },
        {
          "indexed": false,
          "internalType": "bytes",
          "name": "encryptedData",
          "type": "bytes"
        },
        {
          "indexed": false,
          "internalType": "address",
          "name": "owner",
          "type": "address"
        }
      ],
      "name": "AssetTokenized",
      "type": "event"
    },
    {
      "anonymous": false,
      "inputs": [
        {
          "indexed": false,
          "internalType": "uint256",
          "name": "assetId",
          "type": "uint256"
        },
        {
          "indexed": false,
          "internalType": "address",
          "name": "from",
          "type": "address"
        },
        {
          "indexed": false,
          "internalType": "address",
          "name": "to",
          "type": "address"
        }
      ],
      "name": "AssetTransferred",
      "type": "event"
    },
    {
      "inputs": [],
      "name": "assetCounter",
      "outputs": [
        {
          "internalType": "uint256",
          "name": "",
          "type": "uint256"
        }
      ],
      "stateMutability": "view",
      "type": "function"
    },
    {
      "inputs": [
        {
          "internalType": "uint256",
          "name": "",
          "type": "uint256"
        }
      ],
      "name": "assets",
      "outputs": [
        {
          "internalType": "euint32",
          "name": "encryptedData",
          "type": "uint256"
        },
        {
          "internalType": "address",
          "name": "owner",
          "type": "address"
        }
      ],
      "stateMutability": "view",
      "type": "function"
    },
    {
      "inputs": [
        {
          "internalType": "uint256",
          "name": "assetId",
          "type": "uint256"
        },
        {
          "internalType": "bytes32",
          "name": "publicKey",
          "type": "bytes32"
        }
      ],
      "name": "getAsset",
      "outputs": [
        {
          "internalType": "bytes",
          "name": "",
          "type": "bytes"
        }
      ],
      "stateMutability": "view",
      "type": "function"
    },
    {
      "inputs": [
        {
          "internalType": "bytes",
          "name": "encryptedData",
          "type": "bytes"
        }
      ],
      "name": "tokenizeAsset",
      "outputs": [],
      "stateMutability": "nonpayable",
      "type": "function"
    },
    {
      "inputs": [
        {
          "internalType": "uint256",
          "name": "assetId",
          "type": "uint256"
        },
        {
          "internalType": "address",
          "name": "newOwner",
          "type": "address"
        }
      ],
      "name": "transferAsset",
      "outputs": [],
      "stateMutability": "nonpayable",
      "type": "function"
    }
  ],
  "bytecode": "0x608060405234801561000f575f80fd5b506107848061001d5f395ff3fe608060405234801561000f575f80fd5b5060043610610064575f3560e01c8063cf35bdd01161004d578063cf35bdd0146100a4578063e7e2218d146100f0578063fa62ee8d14610105575f80fd5b80634b918786146100685780636222d88a14610084575b5f80fd5b61007160015481565b6040519081526020015b60405180910390f35b6100976100923660046104c3565b610118565b60405161007b9190610505565b6100d36100b2366004610537565b5f60208190529081526040902080546001909101546001600160a01b031682565b604080519283526001600160a01b0390911660208301520161007b565b6101036100fe36600461054e565b6101b2565b005b6101036101133660046105ba565b6102a1565b5f828152602081905260409020600101546060906001600160a01b031633146101935760405162461bcd60e51b815260206004820152602260248201527f4f6e6c7920746865206f776e65722063616e20766965772074686520617373656044820152613a1760f11b60648201526084015b60405180910390fd5b5f838152602081905260409020546101ab90836103a7565b9392505050565b5f6101f183838080601f0160208091040260200160405190810160405280939291908181526020018383808284375f920191909152506103b392505050565b600180549192505f610202836105f3565b9091555050604080518082018252828152336020808301828152600180545f90815292839052918590209351845551928101805473ffffffffffffffffffffffffffffffffffffffff19166001600160a01b0390941693909317909255905491517f855372e240e9f8039ccd1731468910f0bb07c64f9ba584f35f3e7329a900c0ff9261029492909187918791610617565b60405180910390a1505050565b5f828152602081905260409020600101546001600160a01b0316331461032f5760405162461bcd60e51b815260206004820152602660248201527f4f6e6c7920746865206f776e65722063616e207472616e73666572207468652060448201527f61737365742e0000000000000000000000000000000000000000000000000000606482015260840161018a565b5f828152602081815260409182902060010180546001600160a01b0385811673ffffffffffffffffffffffffffffffffffffffff19831681179093558451878152911692810183905292830152907fa993eb3a10693085bc7afc1de0202310fbd5992b9e51edd263b198f62f20cdae90606001610294565b60606101ab83836103c5565b5f6103bf826004610430565b92915050565b60405163d6ad57cd60e01b81526004810183905260248101829052606090605d9063d6ad57cd906044015f60405180830381865afa158015610409573d5f803e3d5ffd5b505050506040513d5f823e601f3d908101601f191682016040526101ab9190810190610672565b5f80838360f81b60405160200161044892919061071a565b60408051601f1981840301815290829052630964a5d960e31b82529150605d90634b252ec89061047c908490600401610505565b602060405180830381865afa158015610497573d5f803e3d5ffd5b505050506040513d601f19601f820116820180604052508101906104bb9190610760565b949350505050565b5f80604083850312156104d4575f80fd5b50508035926020909101359150565b5f5b838110156104fd5781810151838201526020016104e5565b50505f910152565b602081525f82518060208401526105238160408501602087016104e3565b601f01601f19169190910160400192915050565b5f60208284031215610547575f80fd5b5035919050565b5f806020838503121561055f575f80fd5b823567ffffffffffffffff80821115610576575f80fd5b818501915085601f830112610589575f80fd5b813581811115610597575f80fd5b8660208285010111156105a8575f80fd5b60209290920196919550909350505050565b5f80604083850312156105cb575f80fd5b8235915060208301356001600160a01b03811681146105e8575f80fd5b809150509250929050565b5f6001820161061057634e487b7160e01b5f52601160045260245ffd5b5060010190565b84815260606020820152826060820152828460808301375f608084830101525f6080601f19601f86011683010190506001600160a01b038316604083015295945050505050565b634e487b7160e01b5f52604160045260245ffd5b5f60208284031215610682575f80fd5b815167ffffffffffffffff80821115610699575f80fd5b818401915084601f8301126106ac575f80fd5b8151818111156106be576106be61065e565b604051601f8201601f19908116603f011681019083821181831017156106e6576106e661065e565b816040528281528760208487010111156106fe575f80fd5b61070f8360208301602088016104e3565b979650505050505050565b5f835161072b8184602088016104e3565b7fff00000000000000000000000000000000000000000000000000000000000000939093169190920190815260010192915050565b5f60208284031215610770575f80fd5b505191905056fea164736f6c6343000816000a",
  "linkReferences": {},
  "deployedLinkReferences": {}
}